{
  "_format": "hh-sol-artifact-1",
  "contractName": "BdagJobPayment",
  "sourceName": "contracts/BdagJobPayment.sol",
  "abi": [
    {
      "inputs": [],
      "stateMutability": "nonpayable",
      "type": "constructor"
    },
    {
      "anonymous": false,
      "inputs": [
        {
          "indexed": false,
          "internalType": "uint256",
          "name": "jobId",
          "type": "uint256"
        },
        {
          "indexed": false,
          "internalType": "address",
          "name": "designer",
          "type": "address"
        }
      ],
      "name": "DesignerHired",
      "type": "event"
    },
    {
      "anonymous": false,
      "inputs": [
        {
          "indexed": false,
          "internalType": "address",
          "name": "designer",
          "type": "address"
        },
        {
          "indexed": false,
          "internalType": "uint256",
          "name": "rate",
          "type": "uint256"
        },
        {
          "indexed": false,
          "internalType": "string",
          "name": "name",
          "type": "string"
        }
      ],
      "name": "DesignerRegistered",
      "type": "event"
    },
    {
      "anonymous": false,
      "inputs": [
        {
          "indexed": false,
          "internalType": "uint256",
          "name": "jobId",
          "type": "uint256"
        }
      ],
      "name": "JobCompleted",
      "type": "event"
    },
    {
      "anonymous": false,
      "inputs": [
        {
          "indexed": false,
          "internalType": "uint256",
          "name": "jobId",
          "type": "uint256"
        },
        {
          "indexed": false,
          "internalType": "address",
          "name": "client",
          "type": "address"
        },
        {
          "indexed": false,
          "internalType": "uint256",
          "name": "budget",
          "type": "uint256"
        },
        {
          "indexed": false,
          "internalType": "string",
          "name": "description",
          "type": "string"
        }
      ],
      "name": "JobPosted",
      "type": "event"
    },
    {
      "anonymous": false,
      "inputs": [
        {
          "indexed": false,
          "internalType": "uint256",
          "name": "jobId",
          "type": "uint256"
        },
        {
          "indexed": false,
          "internalType": "address",
          "name": "designer",
          "type": "address"
        },
        {
          "indexed": false,
          "internalType": "uint256",
          "name": "amount",
          "type": "uint256"
        }
      ],
      "name": "PaymentReleased",
      "type": "event"
    },
    {
      "inputs": [
        {
          "internalType": "uint256",
          "name": "_jobId",
          "type": "uint256"
        }
      ],
      "name": "completeJob",
      "outputs": [],
      "stateMutability": "nonpayable",
      "type": "function"
    },
    {
      "inputs": [
        {
          "internalType": "address",
          "name": "",
          "type": "address"
        }
      ],
      "name": "designers",
      "outputs": [
        {
          "internalType": "uint256",
          "name": "hourlyRate",
          "type": "uint256"
        },
        {
          "internalType": "string",
          "name": "name",
          "type": "string"
        },
        {
          "internalType": "bool",
          "name": "registered",
          "type": "bool"
        }
      ],
      "stateMutability": "view",
      "type": "function"
    },
    {
      "inputs": [
        {
          "internalType": "address",
          "name": "_designer",
          "type": "address"
        }
      ],
      "name": "getDesigner",
      "outputs": [
        {
          "internalType": "uint256",
          "name": "",
          "type": "uint256"
        },
        {
          "internalType": "string",
          "name": "",
          "type": "string"
        },
        {
          "internalType": "bool",
          "name": "",
          "type": "bool"
        }
      ],
      "stateMutability": "view",
      "type": "function"
    },
    {
      "inputs": [
        {
          "internalType": "uint256",
          "name": "_jobId",
          "type": "uint256"
        }
      ],
      "name": "getJob",
      "outputs": [
        {
          "internalType": "uint256",
          "name": "",
          "type": "uint256"
        },
        {
          "internalType": "address",
          "name": "",
          "type": "address"
        },
        {
          "internalType": "address",
          "name": "",
          "type": "address"
        },
        {
          "internalType": "uint256",
          "name": "",
          "type": "uint256"
        },
        {
          "internalType": "string",
          "name": "",
          "type": "string"
        },
        {
          "internalType": "enum BdagJobPayment.JobStatus",
          "name": "",
          "type": "uint8"
        }
      ],
      "stateMutability": "view",
      "type": "function"
    },
    {
      "inputs": [],
      "name": "getJobCounter",
      "outputs": [
        {
          "internalType": "uint256",
          "name": "",
          "type": "uint256"
        }
      ],
      "stateMutability": "view",
      "type": "function"
    },
    {
      "inputs": [
        {
          "internalType": "uint256",
          "name": "_jobId",
          "type": "uint256"
        },
        {
          "internalType": "address",
          "name": "_designer",
          "type": "address"
        }
      ],
      "name": "hireDesigner",
      "outputs": [],
      "stateMutability": "nonpayable",
      "type": "function"
    },
    {
      "inputs": [],
      "name": "jobCounter",
      "outputs": [
        {
          "internalType": "uint256",
          "name": "",
          "type": "uint256"
        }
      ],
      "stateMutability": "view",
      "type": "function"
    },
    {
      "inputs": [
        {
          "internalType": "uint256",
          "name": "",
          "type": "uint256"
        }
      ],
      "name": "jobs",
      "outputs": [
        {
          "internalType": "uint256",
          "name": "id",
          "type": "uint256"
        },
        {
          "internalType": "address",
          "name": "client",
          "type": "address"
        },
        {
          "internalType": "address payable",
          "name": "designer",
          "type": "address"
        },
        {
          "internalType": "uint256",
          "name": "budget",
          "type": "uint256"
        },
        {
          "internalType": "string",
          "name": "description",
          "type": "string"
        },
        {
          "internalType": "enum BdagJobPayment.JobStatus",
          "name": "status",
          "type": "uint8"
        }
      ],
      "stateMutability": "view",
      "type": "function"
    },
    {
      "inputs": [],
      "name": "owner",
      "outputs": [
        {
          "internalType": "address",
          "name": "",
          "type": "address"
        }
      ],
      "stateMutability": "view",
      "type": "function"
    },
    {
      "inputs": [
        {
          "internalType": "string",
          "name": "_description",
          "type": "string"
        },
        {
          "internalType": "uint256",
          "name": "_budget",
          "type": "uint256"
        }
      ],
      "name": "postJob",
      "outputs": [],
      "stateMutability": "payable",
      "type": "function"
    },
    {
      "inputs": [
        {
          "internalType": "uint256",
          "name": "_hourlyRate",
          "type": "uint256"
        },
        {
          "internalType": "string",
          "name": "_name",
          "type": "string"
        }
      ],
      "name": "registerDesigner",
      "outputs": [],
      "stateMutability": "nonpayable",
      "type": "function"
    },
    {
      "inputs": [
        {
          "internalType": "uint256",
          "name": "_jobId",
          "type": "uint256"
        }
      ],
      "name": "releasePayment",
      "outputs": [],
      "stateMutability": "nonpayable",
      "type": "function"
    }
  ],
  "bytecode": "0x608060405234801561001057600080fd5b50336000806101000a81548173ffffffffffffffffffffffffffffffffffffffff021916908373ffffffffffffffffffffffffffffffffffffffff160217905550611fb8806100606000396000f3fe6080604052600436106100a75760003560e01c806388685cd91161006457806388685cd9146101d55780638da5cb5b146101fe5780639a4e703a14610229578063a1c0d32f14610268578063bf22c45714610291578063eb9a4e93146102d3576100a7565b8063180aedf3146100ac5780632257b8da146100ee57806350355d761461011957806361d38f7e146101445780638334fef61461016d578063866eec5b146101ac575b600080fd5b3480156100b857600080fd5b506100d360048036038101906100ce9190611146565b6102ef565b6040516100e5969594939291906112eb565b60405180910390f35b3480156100fa57600080fd5b50610103610400565b6040516101109190611353565b60405180910390f35b34801561012557600080fd5b5061012e61040a565b60405161013b9190611353565b60405180910390f35b34801561015057600080fd5b5061016b600480360381019061016691906114a3565b610410565b005b34801561017957600080fd5b50610194600480360381019061018f919061152b565b6104ef565b6040516101a393929190611573565b60405180910390f35b3480156101b857600080fd5b506101d360048036038101906101ce91906115b1565b610616565b005b3480156101e157600080fd5b506101fc60048036038101906101f79190611146565b610874565b005b34801561020a57600080fd5b50610213610a98565b60405161022091906115f1565b60405180910390f35b34801561023557600080fd5b50610250600480360381019061024b919061152b565b610abc565b60405161025f93929190611573565b60405180910390f35b34801561027457600080fd5b5061028f600480360381019061028a9190611146565b610b7b565b005b34801561029d57600080fd5b506102b860048036038101906102b39190611146565b610d04565b6040516102ca9695949392919061160c565b60405180910390f35b6102ed60048036038101906102e89190611674565b610ef0565b005b60026020528060005260406000206000915090508060000154908060010160009054906101000a900473ffffffffffffffffffffffffffffffffffffffff16908060020160009054906101000a900473ffffffffffffffffffffffffffffffffffffffff169080600301549080600401805461036a906116ff565b80601f0160208091040260200160405190810160405280929190818152602001828054610396906116ff565b80156103e35780601f106103b8576101008083540402835291602001916103e3565b820191906000526020600020905b8154815290600101906020018083116103c657829003601f168201915b5050505050908060050160009054906101000a900460ff16905086565b6000600154905090565b60015481565b604051806060016040528083815260200182815260200160011515815250600360003373ffffffffffffffffffffffffffffffffffffffff1673ffffffffffffffffffffffffffffffffffffffff16815260200190815260200160002060008201518160000155602082015181600101908161048c91906118dc565b5060408201518160020160006101000a81548160ff0219169083151502179055509050507f38ddc8136312f23cec7deb56ff10ddc83c1b66be6f79878a2715582451d9b8723383836040516104e3939291906119ae565b60405180910390a15050565b60006060600080600360008673ffffffffffffffffffffffffffffffffffffffff1673ffffffffffffffffffffffffffffffffffffffff1681526020019081526020016000206040518060600160405290816000820154815260200160018201805461055a906116ff565b80601f0160208091040260200160405190810160405280929190818152602001828054610586906116ff565b80156105d35780601f106105a8576101008083540402835291602001916105d3565b820191906000526020600020905b8154815290600101906020018083116105b657829003601f168201915b505050505081526020016002820160009054906101000a900460ff1615151515815250509050806000015181602001518260400151935093509350509193909250565b60006002600084815260200190815260200160002090503373ffffffffffffffffffffffffffffffffffffffff168160010160009054906101000a900473ffffffffffffffffffffffffffffffffffffffff1673ffffffffffffffffffffffffffffffffffffffff16146106bf576040517f08c379a00000000000000000000000000000000000000000000000000000000081526004016106b690611a38565b60405180910390fd5b600060038111156106d3576106d2611274565b5b8160050160009054906101000a900460ff1660038111156106f7576106f6611274565b5b14610737576040517f08c379a000000000000000000000000000000000000000000000000000000000815260040161072e90611aa4565b60405180910390fd5b600360008373ffffffffffffffffffffffffffffffffffffffff1673ffffffffffffffffffffffffffffffffffffffff16815260200190815260200160002060020160009054906101000a900460ff166107c6576040517f08c379a00000000000000000000000000000000000000000000000000000000081526004016107bd90611b10565b60405180910390fd5b818160020160006101000a81548173ffffffffffffffffffffffffffffffffffffffff021916908373ffffffffffffffffffffffffffffffffffffffff16021790555060018160050160006101000a81548160ff0219169083600381111561083157610830611274565b5b02179055507f2fd42e2524f5c6050b6d7d9f3589e923c3f35f6caf44c2029d5eaa53bbc4baef8383604051610867929190611b30565b60405180910390a1505050565b60006002600083815260200190815260200160002090503373ffffffffffffffffffffffffffffffffffffffff168160010160009054906101000a900473ffffffffffffffffffffffffffffffffffffffff1673ffffffffffffffffffffffffffffffffffffffff161461091d576040517f08c379a000000000000000000000000000000000000000000000000000000000815260040161091490611bcb565b60405180910390fd5b6002600381111561093157610930611274565b5b8160050160009054906101000a900460ff16600381111561095557610954611274565b5b14610995576040517f08c379a000000000000000000000000000000000000000000000000000000000815260040161098c90611c5d565b60405180910390fd5b60038160050160006101000a81548160ff021916908360038111156109bd576109bc611274565b5b02179055508060020160009054906101000a900473ffffffffffffffffffffffffffffffffffffffff1673ffffffffffffffffffffffffffffffffffffffff166108fc82600301549081150290604051600060405180830381858888f19350505050158015610a30573d6000803e3d6000fd5b507f21d71db5be59bb9fa133895586b7404307dd33fb93b16db09dc6f1d9d7d231b0828260020160009054906101000a900473ffffffffffffffffffffffffffffffffffffffff168360030154604051610a8c93929190611cd2565b60405180910390a15050565b60008054906101000a900473ffffffffffffffffffffffffffffffffffffffff1681565b6003602052806000526040600020600091509050806000015490806001018054610ae5906116ff565b80601f0160208091040260200160405190810160405280929190818152602001828054610b11906116ff565b8015610b5e5780601f10610b3357610100808354040283529160200191610b5e565b820191906000526020600020905b815481529060010190602001808311610b4157829003601f168201915b5050505050908060020160009054906101000a900460ff16905083565b60006002600083815260200190815260200160002090503373ffffffffffffffffffffffffffffffffffffffff168160020160009054906101000a900473ffffffffffffffffffffffffffffffffffffffff1673ffffffffffffffffffffffffffffffffffffffff1614610c24576040517f08c379a0000000000000000000000000000000000000000000000000000000008152600401610c1b90611d7b565b60405180910390fd5b60016003811115610c3857610c37611274565b5b8160050160009054906101000a900460ff166003811115610c5c57610c5b611274565b5b14610c9c576040517f08c379a0000000000000000000000000000000000000000000000000000000008152600401610c9390611e0d565b60405180910390fd5b60028160050160006101000a81548160ff02191690836003811115610cc457610cc3611274565b5b02179055507f02244c8529cb95e213ee542e76e7776342b3dabd10203d01472bbf4441be892982604051610cf89190611353565b60405180910390a15050565b6000806000806060600080600260008981526020019081526020016000206040518060c0016040529081600082015481526020016001820160009054906101000a900473ffffffffffffffffffffffffffffffffffffffff1673ffffffffffffffffffffffffffffffffffffffff1673ffffffffffffffffffffffffffffffffffffffff1681526020016002820160009054906101000a900473ffffffffffffffffffffffffffffffffffffffff1673ffffffffffffffffffffffffffffffffffffffff1673ffffffffffffffffffffffffffffffffffffffff16815260200160038201548152602001600482018054610dfd906116ff565b80601f0160208091040260200160405190810160405280929190818152602001828054610e29906116ff565b8015610e765780601f10610e4b57610100808354040283529160200191610e76565b820191906000526020600020905b815481529060010190602001808311610e5957829003601f168201915b505050505081526020016005820160009054906101000a900460ff166003811115610ea457610ea3611274565b5b6003811115610eb657610eb5611274565b5b815250509050806000015181602001518260400151836060015184608001518560a001519650965096509650965096505091939550919395565b803414610f32576040517f08c379a0000000000000000000000000000000000000000000000000000000008152600401610f2990611e9f565b60405180910390fd5b60016000815480929190610f4590611eee565b91905055506040518060c0016040528060015481526020013373ffffffffffffffffffffffffffffffffffffffff168152602001600073ffffffffffffffffffffffffffffffffffffffff16815260200182815260200183815260200160006003811115610fb657610fb5611274565b5b8152506002600060015481526020019081526020016000206000820151816000015560208201518160010160006101000a81548173ffffffffffffffffffffffffffffffffffffffff021916908373ffffffffffffffffffffffffffffffffffffffff16021790555060408201518160020160006101000a81548173ffffffffffffffffffffffffffffffffffffffff021916908373ffffffffffffffffffffffffffffffffffffffff16021790555060608201518160030155608082015181600401908161108591906118dc565b5060a08201518160050160006101000a81548160ff021916908360038111156110b1576110b0611274565b5b02179055509050507f54dd462f26b55b6aa0065c74835da2df2d0328b4132a21efa6dd25b911e274a76001543383856040516110f09493929190611f36565b60405180910390a15050565b6000604051905090565b600080fd5b600080fd5b6000819050919050565b61112381611110565b811461112e57600080fd5b50565b6000813590506111408161111a565b92915050565b60006020828403121561115c5761115b611106565b5b600061116a84828501611131565b91505092915050565b61117c81611110565b82525050565b600073ffffffffffffffffffffffffffffffffffffffff82169050919050565b60006111ad82611182565b9050919050565b6111bd816111a2565b82525050565b60006111ce82611182565b9050919050565b6111de816111c3565b82525050565b600081519050919050565b600082825260208201905092915050565b60005b8381101561121e578082015181840152602081019050611203565b60008484015250505050565b6000601f19601f8301169050919050565b6000611246826111e4565b61125081856111ef565b9350611260818560208601611200565b6112698161122a565b840191505092915050565b7f4e487b7100000000000000000000000000000000000000000000000000000000600052602160045260246000fd5b600481106112b4576112b3611274565b5b50565b60008190506112c5826112a3565b919050565b60006112d5826112b7565b9050919050565b6112e5816112ca565b82525050565b600060c0820190506113006000830189611173565b61130d60208301886111b4565b61131a60408301876111d5565b6113276060830186611173565b8181036080830152611339818561123b565b905061134860a08301846112dc565b979650505050505050565b60006020820190506113686000830184611173565b92915050565b600080fd5b600080fd5b7f4e487b7100000000000000000000000000000000000000000000000000000000600052604160045260246000fd5b6113b08261122a565b810181811067ffffffffffffffff821117156113cf576113ce611378565b5b80604052505050565b60006113e26110fc565b90506113ee82826113a7565b919050565b600067ffffffffffffffff82111561140e5761140d611378565b5b6114178261122a565b9050602081019050919050565b82818337600083830152505050565b6000611446611441846113f3565b6113d8565b90508281526020810184848401111561146257611461611373565b5b61146d848285611424565b509392505050565b600082601f83011261148a5761148961136e565b5b813561149a848260208601611433565b91505092915050565b600080604083850312156114ba576114b9611106565b5b60006114c885828601611131565b925050602083013567ffffffffffffffff8111156114e9576114e861110b565b5b6114f585828601611475565b9150509250929050565b611508816111a2565b811461151357600080fd5b50565b600081359050611525816114ff565b92915050565b60006020828403121561154157611540611106565b5b600061154f84828501611516565b91505092915050565b60008115159050919050565b61156d81611558565b82525050565b60006060820190506115886000830186611173565b818103602083015261159a818561123b565b90506115a96040830184611564565b949350505050565b600080604083850312156115c8576115c7611106565b5b60006115d685828601611131565b92505060206115e785828601611516565b9150509250929050565b600060208201905061160660008301846111b4565b92915050565b600060c0820190506116216000830189611173565b61162e60208301886111b4565b61163b60408301876111b4565b6116486060830186611173565b818103608083015261165a818561123b565b905061166960a08301846112dc565b979650505050505050565b6000806040838503121561168b5761168a611106565b5b600083013567ffffffffffffffff8111156116a9576116a861110b565b5b6116b585828601611475565b92505060206116c685828601611131565b9150509250929050565b7f4e487b7100000000000000000000000000000000000000000000000000000000600052602260045260246000fd5b6000600282049050600182168061171757607f821691505b60208210810361172a576117296116d0565b5b50919050565b60008190508160005260206000209050919050565b60006020601f8301049050919050565b600082821b905092915050565b6000600883026117927fffffffffffffffffffffffffffffffffffffffffffffffffffffffffffffffff82611755565b61179c8683611755565b95508019841693508086168417925050509392505050565b6000819050919050565b60006117d96117d46117cf84611110565b6117b4565b611110565b9050919050565b6000819050919050565b6117f3836117be565b6118076117ff826117e0565b848454611762565b825550505050565b600090565b61181c61180f565b6118278184846117ea565b505050565b5b8181101561184b57611840600082611814565b60018101905061182d565b5050565b601f8211156118905761186181611730565b61186a84611745565b81016020851015611879578190505b61188d61188585611745565b83018261182c565b50505b505050565b600082821c905092915050565b60006118b360001984600802611895565b1980831691505092915050565b60006118cc83836118a2565b9150826002028217905092915050565b6118e5826111e4565b67ffffffffffffffff8111156118fe576118fd611378565b5b61190882546116ff565b61191382828561184f565b600060209050601f8311600181146119465760008415611934578287015190505b61193e85826118c0565b8655506119a6565b601f19841661195486611730565b60005b8281101561197c57848901518255600182019150602085019450602081019050611957565b868310156119995784890151611995601f8916826118a2565b8355505b6001600288020188555050505b505050505050565b60006060820190506119c360008301866111b4565b6119d06020830185611173565b81810360408301526119e2818461123b565b9050949350505050565b7f4f6e6c79206a6f6220636c69656e742063616e20686972650000000000000000600082015250565b6000611a226018836111ef565b9150611a2d826119ec565b602082019050919050565b60006020820190508181036000830152611a5181611a15565b9050919050565b7f4a6f62206973206e6f74206f70656e20666f7220686972696e67000000000000600082015250565b6000611a8e601a836111ef565b9150611a9982611a58565b602082019050919050565b60006020820190508181036000830152611abd81611a81565b9050919050565b7f44657369676e6572206973206e6f742072656769737465726564000000000000600082015250565b6000611afa601a836111ef565b9150611b0582611ac4565b602082019050919050565b60006020820190508181036000830152611b2981611aed565b9050919050565b6000604082019050611b456000830185611173565b611b5260208301846111b4565b9392505050565b7f4f6e6c79206a6f6220636c69656e742063616e2072656c65617365207061796d60008201527f656e740000000000000000000000000000000000000000000000000000000000602082015250565b6000611bb56023836111ef565b9150611bc082611b59565b604082019050919050565b60006020820190508181036000830152611be481611ba8565b9050919050565b7f4a6f62206d75737420626520636f6d706c65746564206265666f72652070617960008201527f6d656e742072656c656173650000000000000000000000000000000000000000602082015250565b6000611c47602c836111ef565b9150611c5282611beb565b604082019050919050565b60006020820190508181036000830152611c7681611c3a565b9050919050565b6000611c98611c93611c8e84611182565b6117b4565b611182565b9050919050565b6000611caa82611c7d565b9050919050565b6000611cbc82611c9f565b9050919050565b611ccc81611cb1565b82525050565b6000606082019050611ce76000830186611173565b611cf46020830185611cc3565b611d016040830184611173565b949350505050565b7f4f6e6c792061737369676e65642064657369676e65722063616e20636f6d706c60008201527f657465206a6f6200000000000000000000000000000000000000000000000000602082015250565b6000611d656027836111ef565b9150611d7082611d09565b604082019050919050565b60006020820190508181036000830152611d9481611d58565b9050919050565b7f4a6f62206d757374206265206869726564206265666f726520636f6d706c657460008201527f696f6e0000000000000000000000000000000000000000000000000000000000602082015250565b6000611df76023836111ef565b9150611e0282611d9b565b604082019050919050565b60006020820190508181036000830152611e2681611dea565b9050919050565b7f53656e7420424441472076616c7565206d757374206d6174636820627564676560008201527f7400000000000000000000000000000000000000000000000000000000000000602082015250565b6000611e896021836111ef565b9150611e9482611e2d565b604082019050919050565b60006020820190508181036000830152611eb881611e7c565b9050919050565b7f4e487b7100000000000000000000000000000000000000000000000000000000600052601160045260246000fd5b6000611ef982611110565b91507fffffffffffffffffffffffffffffffffffffffffffffffffffffffffffffffff8203611f2b57611f2a611ebf565b5b600182019050919050565b6000608082019050611f4b6000830187611173565b611f5860208301866111b4565b611f656040830185611173565b8181036060830152611f77818461123b565b90509594505050505056fea2646970667358221220b692d0d05eb1530f9c091cafd8f476fb8102746bb550b5ef93dfbca65262315364736f6c63430008130033",
  "linkReferences": {},
  "deployedLinkReferences": {}
}