{
  "_format": "hh-sol-artifact-1",
  "contractName": "BdagCredit",
  "sourceName": "contracts/BdagCredit.sol",
  "abi": [
    {
      "inputs": [],
      "stateMutability": "nonpayable",
      "type": "constructor"
    },
    {
      "anonymous": false,
      "inputs": [
        {
          "indexed": true,
          "internalType": "address",
          "name": "user",
          "type": "address"
        },
        {
          "indexed": false,
          "internalType": "uint256",
          "name": "bdagAmount",
          "type": "uint256"
        },
        {
          "indexed": false,
          "internalType": "uint256",
          "name": "credits",
          "type": "uint256"
        }
      ],
      "name": "CreditsPurchased",
      "type": "event"
    },
    {
      "anonymous": false,
      "inputs": [
        {
          "indexed": true,
          "internalType": "address",
          "name": "user",
          "type": "address"
        },
        {
          "indexed": false,
          "internalType": "uint256",
          "name": "credits",
          "type": "uint256"
        }
      ],
      "name": "CreditsUsed",
      "type": "event"
    },
    {
      "inputs": [],
      "name": "CONVERSION_RATE",
      "outputs": [
        {
          "internalType": "uint256",
          "name": "",
          "type": "uint256"
        }
      ],
      "stateMutability": "view",
      "type": "function"
    },
    {
      "inputs": [],
      "name": "buyCredits",
      "outputs": [],
      "stateMutability": "payable",
      "type": "function"
    },
    {
      "inputs": [
        {
          "internalType": "address",
          "name": "user",
          "type": "address"
        }
      ],
      "name": "getCredits",
      "outputs": [
        {
          "internalType": "uint256",
          "name": "",
          "type": "uint256"
        }
      ],
      "stateMutability": "view",
      "type": "function"
    },
    {
      "inputs": [],
      "name": "owner",
      "outputs": [
        {
          "internalType": "address",
          "name": "",
          "type": "address"
        }
      ],
      "stateMutability": "view",
      "type": "function"
    },
    {
      "inputs": [
        {
          "internalType": "uint256",
          "name": "amount",
          "type": "uint256"
        }
      ],
      "name": "useCredits",
      "outputs": [],
      "stateMutability": "nonpayable",
      "type": "function"
    },
    {
      "inputs": [
        {
          "internalType": "address",
          "name": "",
          "type": "address"
        }
      ],
      "name": "userCredits",
      "outputs": [
        {
          "internalType": "uint256",
          "name": "",
          "type": "uint256"
        }
      ],
      "stateMutability": "view",
      "type": "function"
    },
    {
      "inputs": [],
      "name": "withdrawBDAG",
      "outputs": [],
      "stateMutability": "nonpayable",
      "type": "function"
    }
  ],
  "bytecode": "0x608060405234801561001057600080fd5b50336000806101000a81548173ffffffffffffffffffffffffffffffffffffffff021916908373ffffffffffffffffffffffffffffffffffffffff16021790555061090a806100606000396000f3fe6080604052600436106100705760003560e01c806383f31cd31161004e57806383f31cd31461011a5780638da5cb5b1461012457806395f9d2a41461014f578063a05ac0ed1461016657610070565b806320babb92146100755780632c8bff31146100b25780633b66e9f6146100dd575b600080fd5b34801561008157600080fd5b5061009c60048036038101906100979190610599565b61018f565b6040516100a991906105df565b60405180910390f35b3480156100be57600080fd5b506100c76101a7565b6040516100d491906105df565b60405180910390f35b3480156100e957600080fd5b5061010460048036038101906100ff9190610599565b6101ac565b60405161011191906105df565b60405180910390f35b6101226101f5565b005b34801561013057600080fd5b506101396102f2565b6040516101469190610609565b60405180910390f35b34801561015b57600080fd5b50610164610316565b005b34801561017257600080fd5b5061018d60048036038101906101889190610650565b61040d565b005b60016020528060005260406000206000915090505481565b600a81565b6000600160008373ffffffffffffffffffffffffffffffffffffffff1673ffffffffffffffffffffffffffffffffffffffff168152602001908152602001600020549050919050565b60003411610238576040517f08c379a000000000000000000000000000000000000000000000000000000000815260040161022f906106da565b60405180910390fd5b6000600a346102479190610729565b905080600160003373ffffffffffffffffffffffffffffffffffffffff1673ffffffffffffffffffffffffffffffffffffffff1681526020019081526020016000206000828254610298919061076b565b925050819055503373ffffffffffffffffffffffffffffffffffffffff167ffb82fc1c5adf84899709e87563b69dd5f4ac33320f1c60dbca744bec717eb90f34836040516102e792919061079f565b60405180910390a250565b60008054906101000a900473ffffffffffffffffffffffffffffffffffffffff1681565b60008054906101000a900473ffffffffffffffffffffffffffffffffffffffff1673ffffffffffffffffffffffffffffffffffffffff163373ffffffffffffffffffffffffffffffffffffffff16146103a4576040517f08c379a000000000000000000000000000000000000000000000000000000000815260040161039b90610814565b60405180910390fd5b60008054906101000a900473ffffffffffffffffffffffffffffffffffffffff1673ffffffffffffffffffffffffffffffffffffffff166108fc479081150290604051600060405180830381858888f1935050505015801561040a573d6000803e3d6000fd5b50565b80600160003373ffffffffffffffffffffffffffffffffffffffff1673ffffffffffffffffffffffffffffffffffffffff16815260200190815260200160002054101561048f576040517f08c379a000000000000000000000000000000000000000000000000000000000815260040161048690610880565b60405180910390fd5b80600160003373ffffffffffffffffffffffffffffffffffffffff1673ffffffffffffffffffffffffffffffffffffffff16815260200190815260200160002060008282546104de91906108a0565b925050819055503373ffffffffffffffffffffffffffffffffffffffff167fa88a3b41ad6405e14152ab90d3d70da43193048753fceb457e0ae3bf6ab7d8b48260405161052b91906105df565b60405180910390a250565b600080fd5b600073ffffffffffffffffffffffffffffffffffffffff82169050919050565b60006105668261053b565b9050919050565b6105768161055b565b811461058157600080fd5b50565b6000813590506105938161056d565b92915050565b6000602082840312156105af576105ae610536565b5b60006105bd84828501610584565b91505092915050565b6000819050919050565b6105d9816105c6565b82525050565b60006020820190506105f460008301846105d0565b92915050565b6106038161055b565b82525050565b600060208201905061061e60008301846105fa565b92915050565b61062d816105c6565b811461063857600080fd5b50565b60008135905061064a81610624565b92915050565b60006020828403121561066657610665610536565b5b60006106748482850161063b565b91505092915050565b600082825260208201905092915050565b7f416d6f756e74206d7573742062652067726561746572207468616e2030000000600082015250565b60006106c4601d8361067d565b91506106cf8261068e565b602082019050919050565b600060208201905081810360008301526106f3816106b7565b9050919050565b7f4e487b7100000000000000000000000000000000000000000000000000000000600052601160045260246000fd5b6000610734826105c6565b915061073f836105c6565b925082820261074d816105c6565b91508282048414831517610764576107636106fa565b5b5092915050565b6000610776826105c6565b9150610781836105c6565b9250828201905080821115610799576107986106fa565b5b92915050565b60006040820190506107b460008301856105d0565b6107c160208301846105d0565b9392505050565b7f4f6e6c79206f776e657200000000000000000000000000000000000000000000600082015250565b60006107fe600a8361067d565b9150610809826107c8565b602082019050919050565b6000602082019050818103600083015261082d816107f1565b9050919050565b7f496e73756666696369656e742063726564697473000000000000000000000000600082015250565b600061086a60148361067d565b915061087582610834565b602082019050919050565b600060208201905081810360008301526108998161085d565b9050919050565b60006108ab826105c6565b91506108b6836105c6565b92508282039050818111156108ce576108cd6106fa565b5b9291505056fea26469706673582212203c6ed5f6bb237207eaf3e2965687f9398d9b893183a035b27f115ac56c040d9264736f6c63430008130033",
  "linkReferences": {},
  "deployedLinkReferences": {}
}